:100000000C9483000C94B4000C94B4000C94B400D1
:100010000C94B4000C94B4000C94B4000C94B40090
:100020000C94B4000C94B4000C94B4000C94B40080
:100030000C94B4000C94B4000C94B4000C94B40070
:100040000C94B4000C94B4000C94B4000C94B40060
:100050000C94B4000C94B4000C94B4000C94A10261
:100060000C94B4000C946B020C9441020C94B400F8
:100070000C94B4000C94B4000C94B4000C94B40030
:100080000C94B4000C94B4000C94B4000C94B40020
:100090000C94B4000C94B4000C94B4000C94B40010
:1000A0000C94B4000C94B4000C94B4000C94B40000
:1000B0000C94B4000C94B4000C94B4000C94B400F0
:1000C0000C94B4000C94B4000C94B4000C94B400E0
:1000D0000C94B4000C94B4000C94B4000C94B400D0
:1000E0000C94B4000C94A2040C9406010C94990195
:1000F0000C944C010C9414010C94B6000C94E30085
:100100000C94F200A20411241FBECFEFD1E2DEBF97
:10011000CDBF00E00CBF12E0A0E0B2E0E2EBF9E0FE
:1001200000E00BBF02C007900D92A032B107D9F7D3
:1001300022E0A0E2B2E001C01D92A83CB207E1F7C4
:1001400010E0C3E8D0E000E006C021970109802F4D
:10015000FE010E94CF04C238D10780E00807A9F74A
:100160000E94F6020C94D7040C940000AF92BF9248
:10017000CF92DF92EF92FF920F931F93CF93DF9373
:100180006C017B018B01040F151FEB015E01AE18A2
:10019000BF08C017D10759F06991D601ED91FC91C4
:1001A0000190F081E02DC6011995892B79F7C501E1
:1001B000DF91CF911F910F91FF90EF90DF90CF9043
:1001C000BF90AF900895FC01538D448D252F30E0F2
:1001D000842F90E0821B930B541710F0CF96089554
:1001E00001970895FC01918D828D981761F0A28D81
:1001F000AE0FBF2FB11D5D968C91928D9F5F9F7347
:10020000928F90E008958FEF9FEF0895FC01918DFC
:10021000828D981731F0828DE80FF11D858D90E069
:1002200008958FEF9FEF0895FC01918D228D892F06
:1002300090E0805C9F4F821B91098F7399270895EE
:100240008BE292E00E94140121E0892B09F420E066
:10025000822F0895FC01A48DA80FB92FB11DA35AB8
:10026000BF4F2C91848D90E001968F739927848FD6
:10027000A689B7892C93A089B1898C9183708064F9
:100280008C93938D848D981306C00288F389E02D9A
:1002900080818F7D80830895EF92FF920F931F934B
:1002A000CF93DF93EC0181E0888F9B8D8C8D981329
:1002B0001AC0E889F989808185FF15C09FB7F89435
:1002C000EE89FF896083E889F98980818370806481
:1002D00080839FBF81E090E0DF91CF911F910F91CC
:1002E000FF90EF900895F62E0B8D10E00F5F1F4FDB
:1002F0000F731127E02E8C8D8E110CC00FB607FCEA
:10030000FACFE889F989808185FFF5CFCE010E9477
:100310002A01F1CFEB8DEC0FFD2FF11DE35AFF4FBA
:10032000F0829FB7F8940B8FEA89FB898081806205
:10033000CFCFCF93DF93EC01888D8823B9F0AA89C2
:10034000BB89E889F9898C9185FD03C0808186FD90
:100350000DC00FB607FCF7CF8C9185FFF2CF8081DF
:1003600085FFEDCFCE010E942A01E9CFDF91CF9129
:10037000089580E090E0892B29F00E9420018111EE
:100380000E94000080E090E0892B49F080E090E03E
:10039000892B29F00E94000081110E94000080E05A
:1003A00090E0892B49F080E090E0892B29F00E94B1
:1003B000000081110E94000080E090E0892B49F04C
:1003C00080E090E0892B29F00E94000081110C94BC
:1003D000000008953FB7F89480912502909126027D
:1003E000A0912702B091280226B5A89B05C02F3FF7
:1003F00019F00196A11DB11D3FBFBA2FA92F982F4B
:100400008827BC01CD01620F711D811D911D42E045
:10041000660F771F881F991F4A95D1F708958F920D
:100420009F92AF92BF92CF92DF92EF92FF924B01D9
:100430005C010E94EA016B017C010E94EA016C19D7
:100440007D098E099F09683E734081059105A8F3D7
:1004500021E0821A9108A108B10888EEC80E83E055
:10046000D81EE11CF11C81149104A104B10429F7E8
:10047000FF90EF90DF90CF90BF90AF909F908F90C4
:1004800008951F920F920FB60F9211240BB60F9280
:100490002F933F934F935F936F937F938F939F938C
:1004A000AF93BF93EF93FF938BE292E00E942A01F8
:1004B000FF91EF91BF91AF919F918F917F916F913C
:1004C0005F914F913F912F910F900BBE0F900FBEF8
:1004D0000F901F9018951F920F920FB60F92112434
:1004E0000BB60F922F938F939F93EF93FF93E0910F
:1004F0003B02F0913C028081E0914102F091420286
:1005000082FD1DC09081809144028F5F8F73209186
:100510004502821741F0E0914402F0E0E55DFD4FB5
:10052000958F80934402FF91EF919F918F912F912E
:100530000F900BBE0F900FBE0F901F9018958081EB
:10054000F2CF1F920F920FB60F9211242F933F9369
:100550008F939F93AF93BF9380912102909122023A
:10056000A0912302B09124023091200223E0230FB6
:100570002D3758F50196A11DB11D209320028093BF
:10058000210290932202A0932302B093240280912F
:10059000250290912602A0912702B091280201968F
:1005A000A11DB11D8093250290932602A0932702DE
:1005B000B0932802BF91AF919F918F913F912F915E
:1005C0000F900FBE0F901F90189526E8230F0296EC
:1005D000A11DB11DD2CF1F920F920FB60F92112401
:1005E0005A980F900FBE0F901F901895CF93DF93DE
:1005F000CDB7DEB768970FB6F894DEBF0FBECDBF9C
:10060000789484B5826084BD84B5816084BD85B5ED
:10061000826085BD85B5816085BD80916E008160F9
:1006200080936E001092810080918100826080939F
:1006300081008091810081608093810080918000A1
:100640008160809380008091B10084608093B100CC
:100650008091B00081608093B000809191008260B1
:1006600080939100809191008160809391008091AE
:1006700090008160809390008091A10082608093BF
:10068000A1008091A10081608093A1008091A000D1
:1006900081608093A000809121018260809321017C
:1006A00080912101816080932101809120018160EE
:1006B0008093200180917A00846080937A008091F9
:1006C0007A00826080937A0080917A0081608093C2
:1006D0007A0080917A00806880937A001092C1003D
:1006E00068EE73E080E090E00E940F0287E08AB934
:1006F00088EF8BB9E0913B02F0913C0282E080836D
:10070000E0913702F09138021082E0913902F091C5
:100710003A028FEC808310924302E0913F02F09105
:10072000400286E08083E0913D02F0913E028081AC
:1007300080618083E0913D02F0913E02808188607B
:100740008083E0913D02F0913E0280818068808349
:10075000E0913D02F0913E0280818F7D8083809107
:10076000C10084648093C1008091C0008160809347
:10077000C00061E070E080E090E00E940F028BE733
:1007800080932A028E010F5F1F4F1E016BE0260E21
:10079000311CB7E04B2E512CEE24E394F12C9FE05A
:1007A000692E712C5E018DE0A80EB11C89B18BE21F
:1007B00092E00E941401892BB1F08BE292E00E943A
:1007C000F20090910002992389F090912A029813E7
:1007D0000AC01092000291E0909329028091C0001B
:1007E0008E7F8093C0000E94B901E0CF80912902E2
:1007F0008823C9F310922902A1E0A09300025A9A1B
:1008000061E070E080E090E00E940F028CE0E1E0A7
:10081000F2E0D80101900D928A95E1F7FE013D9634
:10082000BF01188F0F8BAF89B88D4D91B88FAF8BEB
:1008300030E020E090E080E050E06A01082E02C045
:10084000D594C7940A94E2F7C0FE0CC06201C81A9E
:10085000D90A470102C0880C991CCA94E2F76401C6
:1008600028293D2901968830910539F7DB012D9320
:10087000BD018F88988C28143904A9F6AF01465F12
:100880005F4F90E080E02191922728E030E0BC01AA
:10089000880F991F77FF04C069E8862765E09627CF
:1008A00021503109A1F7E417F50769F750E040E05E
:1008B00030E020E0B701022E02C0660F771F0A94D5
:1008C000E2F768237923672B61F0B301621B730B96
:1008D000D70102C0AA0FBB1F6A95E2F7BD014A2BE0
:1008E000572B2F5F3F4F2031310521F75B874C8716
:1008F000912C812C6801B2E08B16910439F462E0EE
:100900000C151D0569F0D6016C910AC0E3E08E1646
:100910009104C9F7C601801B910B63E0039799F717
:100920008BE292E00E944C01BFEFCB1ADB0ACA14A3
:10093000DB0409F7EFEF8E1A9E0AF5E08F1691049B
:10094000C9F651CFEBE2F2E01382128288EE93E017
:10095000A0E0B0E084839583A683B78381E192E031
:100960009183808385EC90E09587848784EC90E088
:100970009787868780EC90E0918B808B81EC90E06C
:10098000938B828B82EC90E0958B848B86EC90E04D
:10099000978B868B118E128E138E148E0895EE0F08
:1009A000FF1F881F8BBF0790F691E02D1994F894D4
:0209B000FFCF77
:1009B200010104FF0001FF0200000200000000002C
:1009C200004C01B600E30099011401F20006010097
:00000001FF
