:100000000C9483000C94B4000C94B4000C94B400D1
:100010000C94B4000C94B4000C94B4000C94B40090
:100020000C94B4000C94B4000C94B4000C94B40080
:100030000C94B4000C94B4000C94B4000C94B40070
:100040000C94B4000C94B4000C94B4000C94B40060
:100050000C94B4000C94B4000C94B4000C94A10261
:100060000C94B4000C946B020C9441020C94B400F8
:100070000C94B4000C94B4000C94B4000C94B40030
:100080000C94B4000C94B4000C94B4000C94B40020
:100090000C94B4000C94B4000C94B4000C94B40010
:1000A0000C94B4000C94B4000C94B4000C94B40000
:1000B0000C94B4000C94B4000C94B4000C94B400F0
:1000C0000C94B4000C94B4000C94B4000C94B400E0
:1000D0000C94B4000C94B4000C94B4000C94B400D0
:1000E0000C94B4000C9406010C9499010C944C01EE
:1000F0000C94AC040C9414010C94B6000C94E30022
:100100000C94F200AC0411241FBECFEFD1E2DEBF8D
:10011000CDBF00E00CBF12E0A0E0B2E0E6ECF9E0F9
:1001200000E00BBF02C007900D92A633B107D9F7CC
:1001300022E0A6E3B2E001C01D92AE3DB207E1F7B6
:1001400010E0C3E8D0E000E006C021970109802F4D
:10015000FE010E94D904C238D10780E00807A9F740
:100160000E94F6020C94E1040C940000AF92BF923E
:10017000CF92DF92EF92FF920F931F93CF93DF9373
:100180006C017B018B01040F151FEB015E01AE18A2
:10019000BF08C017D10759F06991D601ED91FC91C4
:1001A0000190F081E02DC6011995892B79F7C501E1
:1001B000DF91CF911F910F91FF90EF90DF90CF9043
:1001C000BF90AF900895FC01538D448D252F30E0F2
:1001D000842F90E0821B930B541710F0CF96089554
:1001E00001970895FC01918D828D981761F0A28D81
:1001F000AE0FBF2FB11D5D968C91928D9F5F9F7347
:10020000928F90E008958FEF9FEF0895FC01918DFC
:10021000828D981731F0828DE80FF11D858D90E069
:1002200008958FEF9FEF0895FC01918D228D892F06
:1002300090E0805C9F4F821B91098F7399270895EE
:1002400081E492E00E94140121E0892B09F420E06E
:10025000822F0895FC01A48DA80FB92FB11DA35AB8
:10026000BF4F2C91848D90E001968F739927848FD6
:10027000A689B7892C93A089B1898C9183708064F9
:100280008C93938D848D981306C00288F389E02D9A
:1002900080818F7D80830895EF92FF920F931F934B
:1002A000CF93DF93EC0181E0888F9B8D8C8D981329
:1002B0001AC0E889F989808185FF15C09FB7F89435
:1002C000EE89FF896083E889F98980818370806481
:1002D00080839FBF81E090E0DF91CF911F910F91CC
:1002E000FF90EF900895F62E0B8D10E00F5F1F4FDB
:1002F0000F731127E02E8C8D8E110CC00FB607FCEA
:10030000FACFE889F989808185FFF5CFCE010E9477
:100310002A01F1CFEB8DEC0FFD2FF11DE35AFF4FBA
:10032000F0829FB7F8940B8FEA89FB898081806205
:10033000CFCFCF93DF93EC01888D8823B9F0AA89C2
:10034000BB89E889F9898C9185FD03C0808186FD90
:100350000DC00FB607FCF7CF8C9185FFF2CF8081DF
:1003600085FFEDCFCE010E942A01E9CFDF91CF9129
:10037000089580E090E0892B29F00E9420018111EE
:100380000E94000080E090E0892B49F080E090E03E
:10039000892B29F00E94000081110E94000080E05A
:1003A00090E0892B49F080E090E0892B29F00E94B1
:1003B000000081110E94000080E090E0892B49F04C
:1003C00080E090E0892B29F00E94000081110C94BC
:1003D000000008953FB7F89480913B0290913C0251
:1003E000A0913D02B0913E0226B5A89B05C02F3FCB
:1003F00019F00196A11DB11D3FBFBA2FA92F982F4B
:100400008827BC01CD01620F711D811D911D42E045
:10041000660F771F881F991F4A95D1F708958F920D
:100420009F92AF92BF92CF92DF92EF92FF924B01D9
:100430005C010E94EA016B017C010E94EA016C19D7
:100440007D098E099F09683E734081059105A8F3D7
:1004500021E0821A9108A108B10888EEC80E83E055
:10046000D81EE11CF11C81149104A104B10429F7E8
:10047000FF90EF90DF90CF90BF90AF909F908F90C4
:1004800008951F920F920FB60F9211240BB60F9280
:100490002F933F934F935F936F937F938F939F938C
:1004A000AF93BF93EF93FF9381E492E00E942A0100
:1004B000FF91EF91BF91AF919F918F917F916F913C
:1004C0005F914F913F912F910F900BBE0F900FBEF8
:1004D0000F901F9018951F920F920FB60F92112434
:1004E0000BB60F922F938F939F93EF93FF93E0910F
:1004F0005102F09152028081E0915702F09158022E
:1005000082FD1DC0908180915A028F5F8F73209170
:100510005B02821741F0E0915A02F0E0EF5BFD4F81
:10052000958F80935A02FF91EF919F918F912F9118
:100530000F900BBE0F900FBE0F901F9018958081EB
:10054000F2CF1F920F920FB60F9211242F933F9369
:100550008F939F93AF93BF9380913702909138020E
:10056000A0913902B0913A023091360223E0230F74
:100570002D3758F50196A11DB11D209336028093A9
:10058000370290933802A0933902B0933A028091D7
:100590003B0290913C02A0913D02B0913E02019637
:1005A000A11DB11D80933B0290933C02A0933D029C
:1005B000B0933E02BF91AF919F918F913F912F9148
:1005C0000F900FBE0F901F90189526E8230F0296EC
:1005D000A11DB11DD2CF1F920F920FB60F92112401
:1005E0005A980F900FBE0F901F901895CF93DF93DE
:1005F000CDB7DEB7C654D1090FB6F894DEBF0FBE33
:10060000CDBF789484B5826084BD84B5816084BD9B
:1006100085B5826085BD85B5816085BD80916E00A0
:10062000816080936E0010928100809181008260D1
:10063000809381008091810081608093810080910E
:1006400080008160809380008091B10084608093FD
:10065000B1008091B00081608093B00080919100E2
:1006600082608093910080919100816080939100DD
:10067000809190008160809390008091A1008260C1
:100680008093A1008091A10081608093A10080915E
:10069000A00081608093A0008091210182608093FE
:1006A00021018091210181608093210180912001AD
:1006B00081608093200180917A00846080937A0029
:1006C00080917A00826080937A0080917A008160C4
:1006D00080937A0080917A00806880937A001092EB
:1006E000C10068EE73E080E090E00E940F0287E0B6
:1006F0008AB988EF8BB9E0915102F091520282E001
:100700008083E0914D02F0914E021082E0914F0201
:10071000F09150028FEC808310925902E0915502C3
:10072000F091560286E08083E0915302F0915402EA
:10073000808180618083E0915302F0915402808136
:1007400088608083E0915302F09154028081806838
:100750008083E0915302F091540280818F7D8083E9
:100760008091C10084648093C1008091C000816049
:100770008093C00061E070E080E090E00E940F0292
:100780008EED809340028E010F5F1F4F1E0162E2CB
:10079000260E311CB7E04B2E512CEE24E394F12CA5
:1007A0009FE0692E712C5E0184E2A80EB11C81E4E9
:1007B00092E00E941401892BB1F081E492E00E9442
:1007C000F20090910002992389F0909140029813D1
:1007D0000AC01092000291E090933F028091C00005
:1007E0008E7F8093C0000E94B901E1CF80913F02CB
:1007F0008823C9F310923F02A1E0A09300025A9A05
:1008000061E070E080E090E00E940F0283E2E1E0AE
:10081000F2E0D80101900D928A95E1F7FE01B496BD
:10082000BF0127961FAF0EAF27972796AEADBFAD7E
:1008300027974D912796BFAFAEAF279730E020E0C6
:1008400090E080E050E06A01082E02C0D594C79481
:100850000A94E2F7C0FE0CC06201C81AD90A470127
:1008600002C0880C991CCA94E2F7640128293D292A
:1008700001968830910539F7DB012D93BD0127964C
:100880008EAC9FAC27972814390479F6AF014F5DE1
:100890005F4F90E080E02191922728E030E0BC019A
:1008A000880F991F77FF04C069E8862765E09627BF
:1008B00021503109A1F7E417F50769F750E040E04E
:1008C00030E020E0B701022E02C0660F771F0A94C5
:1008D000E2F768237923672B61F0B301621B730B86
:1008E000D70102C0AA0FBB1F6A95E2F7BD014A2BD0
:1008F000572B2F5F3F4F2031310521F75AA34BA3D0
:10090000912C812C6801B1E08B16910449F4C60149
:10091000801B910B68E3029769F0D6016C910AC0C5
:10092000E4E08E169104C9F7C601801B910B60E7C5
:10093000039799F781E492E00E944C01BFEFCB1A34
:10094000DB0ACA14DB04F9F6EFEF8E1A9E0AF5E013
:100950008F169104B9F647CFE1E4F2E013821282D8
:1009600088EE93E0A0E0B0E084839583A683B7830C
:1009700088E292E09183808385EC90E0958784877C
:1009800084EC90E09787868780EC90E0918B808B59
:1009900081EC90E0938B828B82EC90E0958B848B42
:1009A00086EC90E0978B868B118E128E138E148EB0
:1009B0000895EE0FFF1F881F8BBF0790F691E02D63
:0609C0001994F894FFCF2A
:1009C600010102030401056A070108096A00070418
:1009D60001090A00070B0A0B0C090D09030B07098D
:1009E6001A050000000000004C01B600E300990162
:0609F6001401F2000601ED
:00000001FF
