:020000040000FA
:100000000C9435000C945D000C945D000C945D0024
:100010000C945D000C945D000C945D000C945D00EC
:100020000C945D000C945D000C945D000C945D00DC
:100030000C945D000C945D000C945D000C945D00CC
:100040000C941B020C945D000C94E9010C94C30108
:100050000C9465020C945D000C945D000C945D00A2
:100060000C945D000C945D00030411241FBECFEFBF
:10007000D8E0DEBFCDBF11E0A0E0B1E0E0E7F8E0FE
:1000800002C005900D92A633B107D9F721E0A6E38F
:10009000B1E001C01D92AE3DB207E1F710E0C5E34B
:1000A000D0E004C02197FE010E943004C433D10780
:1000B000C9F70E9470020C9436040C940000AF92B1
:1000C000BF92CF92DF92EF92FF920F931F93CF9345
:1000D000DF936C017B018B01040F151FEB015E01A7
:1000E000AE18BF08C017D10759F06991D601ED913C
:1000F000FC910190F081E02DC6010995892B79F7DB
:10010000C501DF91CF911F910F91FF90EF90DF908C
:10011000CF90BF90AF900895FC01538D448D252F53
:1001200030E0842F90E0821B930B541710F0CF9691
:10013000089501970895FC01918D828D981761F0C3
:10014000A28DAE0FBF2FB11D5D968C91928D9F5FDA
:100150009F73928F90E008958FEF9FEF0895FC01B9
:10016000918D828D981731F0828DE80FF11D858D6C
:1001700090E008958FEF9FEF0895FC01918D228DFF
:10018000892F90E0805C9F4F821B91098F73992784
:10019000089581E491E00E94BD0021E0892B09F4DB
:1001A00020E0822F089580E090E0892B29F00E94C2
:1001B000C90081110C9400000895FC01A48DA80FC2
:1001C000B92FB11DA35ABF4F2C91848D90E0019699
:1001D0008F739927848FA689B7892C93A089B189B9
:1001E0008C91837080648C93938D848D981306C05A
:1001F0000288F389E02D80818F7D80830895EF92BE
:10020000FF920F931F93CF93DF93EC0181E0888FD0
:100210009B8D8C8D98131AC0E889F989808185FFA0
:1002200015C09FB7F894EE89FF896083E889F98942
:1002300080818370806480839FBF81E090E0DF9144
:10024000CF911F910F91FF90EF900895F62E0B8D97
:1002500010E00F5F1F4F0F731127E02E8C8D8E1152
:100260000CC00FB607FCFACFE889F989808185FFB9
:10027000F5CFCE010E94DD00F1CFEB8DEC0FFD2F0D
:10028000F11DE35AFF4FF0829FB7F8940B8FEA8974
:10029000FB8980818062CFCFCF93DF93EC01888D83
:1002A0008823B9F0AA89BB89E889F9898C9185FDF1
:1002B00003C0808186FD0DC00FB607FCF7CF8C917F
:1002C00085FFF2CF808185FFEDCFCE010E94DD005A
:1002D000E9CFDF91CF9108953FB7F89480913B012A
:1002E00090913C01A0913D01B0913E0126B5A89BA3
:1002F00005C02F3F19F00196A11DB11D3FBFBA2FB8
:10030000A92F982F8827BC01CD01620F711D811D77
:10031000911D42E0660F771F881F991F4A95D1F7FC
:1003200008958F929F92AF92BF92CF92DF92EF92F9
:10033000FF924B015C010E946C016B017C010E94E9
:100340006C016C197D098E099F09683E7340810517
:100350009105A8F321E0821A9108A108B10888EE5E
:10036000C80E83E0D81EE11CF11C81149104A10485
:10037000B10429F7FF90EF90DF90CF90BF90AF903E
:100380009F908F9008951F920F920FB60F92112495
:100390002F933F934F935F936F937F938F939F938D
:1003A000AF93BF93EF93FF9381E491E00E94DD0050
:1003B000FF91EF91BF91AF919F918F917F916F913D
:1003C0005F914F913F912F910F900FBE0F901F9013
:1003D00018951F920F920FB60F9211242F938F939F
:1003E0009F93EF93FF93E0915101F091520180812F
:1003F000E0915701F091580182FD1BC090818091DE
:100400005A018F5F8F7320915B01821741F0E09159
:100410005A01F0E0EF5BFE4F958F80935A01FF91F8
:10042000EF919F918F912F910F900FBE0F901F9082
:1004300018958081F4CF1F920F920FB60F9211245E
:100440002F933F938F939F93AF93BF9380913701E7
:1004500090913801A0913901B0913A013091360163
:1004600023E0230F2D3758F50196A11DB11D2093D0
:1004700036018093370190933801A0933901B093EE
:100480003A0180913B0190913C01A0913D01B091D6
:100490003E010196A11DB11D80933B0190933C014B
:1004A000A0933D01B0933E01BF91AF919F918F9179
:1004B0003F912F910F900FBE0F901F90189526E837
:1004C000230F0296A11DB11DD2CF1F920F920FB61E
:1004D0000F9211245A980F900FBE0F901F901895ED
:1004E000CF93DF93CDB7DEB7C654D1090FB6F894DA
:1004F000DEBF0FBECDBF789484B5826084BD84B565
:10050000816084BD85B5826085BD85B5816085BD0E
:1005100080916E00816080936E00109281008091C6
:10052000810082608093810080918100816080934E
:100530008100809180008160809380008091B10073
:1005400084608093B1008091B00081608093B0009E
:1005500080917A00846080937A0080917A00826032
:1005600080937A0080917A00816080937A008091F4
:100570007A00806880937A001092C10068EE73E080
:1005800080E090E00E94910187E08AB988EF8BB902
:10059000E0915101F091520182E08083E0914D01A0
:1005A000F0914E011082E0914F01F09150018FECDB
:1005B000808310925901E0915501F091560186E037
:1005C0008083E0915301F0915401808180618083A8
:1005D000E0915301F0915401808188608083E09123
:1005E0005301F0915401808180688083E091530130
:1005F000F091540180818F7D80838091C10084645B
:100600008093C1008091C00081608093C00061E050
:1006100070E080E090E00E9491018EED80934001B7
:100620008E010F5F1F4F5E0162E2A60EB11C87E0D4
:10063000282E312CEE24E394F12C2E0184E2480E76
:10064000511CBFE06B2E712C81E491E00E94BD0033
:10065000892BB1F081E491E00E949B009091000110
:100660009923D9F09091400198130AC0109200018B
:1006700091E090933F018091C0008E7F8093C000F5
:1006800080E0882E80E0982E8928F1F20E94C9002F
:100690008823D1F20E940000D4CF80913F018823AB
:1006A00079F310923F01A1E0A09300015A9A61E012
:1006B00070E080E090E00E94910183E2E1E0F1E0EF
:1006C000D80101900D928A95E1F7FE01B496BF0121
:1006D00027961FAF0EAF27972796AEADBFAD2797D2
:1006E0004D912796BFAFAEAF279730E020E090E066
:1006F00080E050E06A01082E02C0D594C7940A94A5
:10070000E2F7C0FE0CC06101C81AD90A470102C055
:10071000880C991CCA94E2F7640128293D290196A6
:100720008830910539F7DB012D93BD0127968EACFA
:100730009FAC27978A149B0479F6AF014F5D5F4FFA
:1007400090E080E02191922728E030E0BC01880F02
:10075000991F77FF04C069E8862765E09627215036
:100760003109A1F74E175F0769F750E040E030E02C
:1007700020E0B701022E02C0660F771F0A94E2F74D
:1007800068237923672B61F0B301621B730BD701D8
:1007900002C0AA0FBB1F6A95E2F7BD014A2B572B77
:1007A0002F5F3F4F2031310521F75AA34BA3912CE6
:1007B000812C6801B1E08B16910449F4C601801BBD
:1007C000910B68E3029769F0D6016C910AC0E4E0EE
:1007D0008E169104C9F7C601801B910B60E7039741
:1007E00099F781E491E00E94FF00BFEFCB1ADB0A8A
:1007F000C414D504F9F6EFEF8E1A9E0AF5E08F16B1
:100800009104B9F63DCFE1E4F1E01382128288EE63
:1008100093E0A0E0B0E084839583A683B78388E269
:1008200091E09183808385EC90E09587848784ECC8
:1008300090E09787868780EC90E0918B808B81ECAD
:1008400090E0938B828B82EC90E0958B848B86EC8E
:1008500090E0978B868B118E128E138E148E0895D6
:10086000EE0FFF1F0590F491E02D0994F894FFCF4F
:100870000101020304010506070108090600070437
:1008800001090A00070B0A0B0C090D09030B0709E4
:100890001A05000000000000FF005F008C004C0102
:0608A000BD009B00AF004B
:107E0000112484B714BE81FFF0D085E080938100F7
:107E100082E08093C00088E18093C10086E0809377
:107E2000C20080E18093C4008EE0C9D0259A86E02C
:107E300020E33CEF91E0309385002093840096BBD3
:107E4000B09BFECF1D9AA8958150A9F7CC24DD24C4
:107E500088248394B5E0AB2EA1E19A2EF3E0BF2EE7
:107E6000A2D0813461F49FD0082FAFD0023811F036
:107E7000013811F484E001C083E08DD089C08234E0
:107E800011F484E103C0853419F485E0A6D080C0E4
:107E9000853579F488D0E82EFF2485D0082F10E0AE
:107EA000102F00270E291F29000F111F8ED06801E7
:107EB0006FC0863521F484E090D080E0DECF843638
:107EC00009F040C070D06FD0082F6DD080E0C81688
:107ED00080E7D80618F4F601B7BEE895C0E0D1E017
:107EE00062D089930C17E1F7F0E0CF16F0E7DF06D8
:107EF00018F0F601B7BEE89568D007B600FCFDCFD4
:107F0000A601A0E0B1E02C9130E011968C91119780
:107F100090E0982F8827822B932B1296FA010C0160
:107F200087BEE89511244E5F5F4FF1E0A038BF0790
:107F300051F7F601A7BEE89507B600FCFDCF97BE46
:107F4000E89526C08437B1F42ED02DD0F82E2BD052
:107F50003CD0F601EF2C8F010F5F1F4F84911BD097
:107F6000EA94F801C1F70894C11CD11CFA94CF0C13
:107F7000D11C0EC0853739F428D08EE10CD085E9AC
:107F80000AD08FE07ACF813511F488E018D01DD067
:107F900080E101D065CF982F8091C00085FFFCCF94
:107FA0009093C60008958091C00087FFFCCF809118
:107FB000C00084FD01C0A8958091C6000895E0E648
:107FC000F0E098E1908380830895EDDF803219F02E
:107FD00088E0F5DFFFCF84E1DECF1F93182FE3DFCA
:107FE0001150E9F7F2DF1F91089580E0E8DFEE27F6
:047FF000FF270994CA
:027FFE00040479
:00000001FF
